S01300004578616D706C655F6170702E73726563A5
S21408000000F00120110408005104080051040800FB
S21408001051040800510408005104080000000000BC
S2140800200000000000000000000000005104080066
S214080030510408000000000051040800510408009C
S214080040510408005104080051040800510408002F
S214080050510408005104080051040800510408001F
S214080060510408005104080051040800510408000F
S21408007051040800510408005104080051040800FF
S2140803F0510408005104080051040800FFFFFFFFDD
S214080400FFFFFFFFFFFFFFFFFFFFFFFFFE7FFFFF70
S21408041072B60B490A4A0A4B094C094D084E084F52
S214080420B846B946BA46BB46BC4606488546064858
S21408043080470648804762B600F022F8FEE70000CC
S2140804400000000000F001201D0508004D0508000A
S214080450FFF7FEBF80B400AF074B084A5A60064B4A
S2140804604FF6FF729A60044B4FF404521A60BD466A
S2140804705DF8047B704700BF0020054020C528D9DA
S21408048080B582B000AF00237B60FFF7E3FF1E4B0A
S2140804904FF08042C3F82C211B4B4FF08042C3F824
S2140804A034211A4A194B5B6923F480535361184A5E
S2140804B0174B1B6B43F010031363154A144B1B6B47
S2140804C043F480731363134A124B5B6943F40003C7
S2140804D05361114B4FF48072DA650C4B1B6903F4B9
S2140804E08053002B06D00B4A0A4B5B6843F4000384
S2140804F0536005E0074A074B9B6843F40003936084
S2140805007B6801337B60E8E70050064080F00F40C8
S21408051000B0044000F10F4000D0044080B400AFA3
S214080520084B094A5A60074B5B68064B42F2201292
S2140805301A60044B4FF6FF729A60BD465DF8047B5E
S214080540704700BF0020054020C528D980B48BB06E
S21408055000AF304B3B62304B7B61304BFB60304B1F
S214080560FB61304B3B61304BBB60304BBB61304B63
S2140805707B60304A304B9A4218D000237B620AE0F0
S2140805802D4A7B6A52F823202A497B6A41F82320A1
S2140805907B6A01337B62294B9B087A6A9A42EFD3BF
S2140805A04FF0E023234AC3F8082D04E04FF0E02379
S2140805B0214AC3F8082D09E07B691A783B6A1A7045
S2140805C03B6A01333B627B6901337B61FA687B696E
S2140805D09A42F1D109E03B691A78FB691A70FB69FF
S2140805E00133FB613B6901333B61BA683B699A4258
S2140805F0F1D105E0BB6900221A70BB690133BB6103
S2140806007A68BB699A42F5D12C37BD465DF8047BFB
S214080610704700BF0004FE1F40060800400608009A
S2140806200004FE1F400608004006080000000020E0
S214080630000000200000FE1F000008000004000064
S804080411DE
